{
	"data": {
		"bytecode": {
			"linkReferences": {},
			"object": "608060405260c85f553480156012575f5ffd5b506103a6806100205f395ff3fe608060405234801561000f575f5ffd5b5060043610610029575f3560e01c8063a6b513ee1461002d575b5f5ffd5b610035610037565b005b5f6064600a60ff165f5461004b91906101c5565b6100559190610233565b90506100a26040518060400160405280601c81526020017f46696e616c20707269636520616674657220646973636f756e743a2000000000815250825f5461009d9190610263565b6100a5565b50565b61013d82826040516024016100bb929190610315565b6040516020818303038152906040527fb60e72cc000000000000000000000000000000000000000000000000000000007bffffffffffffffffffffffffffffffffffffffffffffffffffffffff19166020820180517bffffffffffffffffffffffffffffffffffffffffffffffffffffffff8381831617835250505050610141565b5050565b6101588161015061015b61017a565b63ffffffff16565b50565b5f6a636f6e736f6c652e6c6f6790505f5f835160208501845afa505050565b610185819050919050565b61018d610343565b565b5f819050919050565b7f4e487b71000000000000000000000000000000000000000000000000000000005f52601160045260245ffd5b5f6101cf8261018f565b91506101da8361018f565b92508282026101e88161018f565b915082820484148315176101ff576101fe610198565b5b5092915050565b7f4e487b71000000000000000000000000000000000000000000000000000000005f52601260045260245ffd5b5f61023d8261018f565b91506102488361018f565b92508261025857610257610206565b5b828204905092915050565b5f61026d8261018f565b91506102788361018f565b92508282039050818111156102905761028f610198565b5b92915050565b5f81519050919050565b5f82825260208201905092915050565b8281835e5f83830152505050565b5f601f19601f8301169050919050565b5f6102d882610296565b6102e281856102a0565b93506102f28185602086016102b0565b6102fb816102be565b840191505092915050565b61030f8161018f565b82525050565b5f6040820190508181035f83015261032d81856102ce565b905061033c6020830184610306565b9392505050565b7f4e487b71000000000000000000000000000000000000000000000000000000005f52605160045260245ffdfea264697066735822122021f200352c1370b2bb6b0ed6ae6c51ff5b06d701d7dcb84d57253542df01feb164736f6c634300081e0033",
			"opcodes": "PUSH1 0x80 PUSH1 0x40 MSTORE PUSH1 0xC8 PUSH0 SSTORE CALLVALUE DUP1 ISZERO PUSH1 0x12 JUMPI PUSH0 PUSH0 REVERT JUMPDEST POP PUSH2 0x3A6 DUP1 PUSH2 0x20 PUSH0 CODECOPY PUSH0 RETURN INVALID PUSH1 0x80 PUSH1 0x40 MSTORE CALLVALUE DUP1 ISZERO PUSH2 0xF JUMPI PUSH0 PUSH0 REVERT JUMPDEST POP PUSH1 0x4 CALLDATASIZE LT PUSH2 0x29 JUMPI PUSH0 CALLDATALOAD PUSH1 0xE0 SHR DUP1 PUSH4 0xA6B513EE EQ PUSH2 0x2D JUMPI JUMPDEST PUSH0 PUSH0 REVERT JUMPDEST PUSH2 0x35 PUSH2 0x37 JUMP JUMPDEST STOP JUMPDEST PUSH0 PUSH1 0x64 PUSH1 0xA PUSH1 0xFF AND PUSH0 SLOAD PUSH2 0x4B SWAP2 SWAP1 PUSH2 0x1C5 JUMP JUMPDEST PUSH2 0x55 SWAP2 SWAP1 PUSH2 0x233 JUMP JUMPDEST SWAP1 POP PUSH2 0xA2 PUSH1 0x40 MLOAD DUP1 PUSH1 0x40 ADD PUSH1 0x40 MSTORE DUP1 PUSH1 0x1C DUP2 MSTORE PUSH1 0x20 ADD PUSH32 0x46696E616C20707269636520616674657220646973636F756E743A2000000000 DUP2 MSTORE POP DUP3 PUSH0 SLOAD PUSH2 0x9D SWAP2 SWAP1 PUSH2 0x263 JUMP JUMPDEST PUSH2 0xA5 JUMP JUMPDEST POP JUMP JUMPDEST PUSH2 0x13D DUP3 DUP3 PUSH1 0x40 MLOAD PUSH1 0x24 ADD PUSH2 0xBB SWAP3 SWAP2 SWAP1 PUSH2 0x315 JUMP JUMPDEST PUSH1 0x40 MLOAD PUSH1 0x20 DUP2 DUP4 SUB SUB DUP2 MSTORE SWAP1 PUSH1 0x40 MSTORE PUSH32 0xB60E72CC00000000000000000000000000000000000000000000000000000000 PUSH28 0xFFFFFFFFFFFFFFFFFFFFFFFFFFFFFFFFFFFFFFFFFFFFFFFFFFFFFFFF NOT AND PUSH1 0x20 DUP3 ADD DUP1 MLOAD PUSH28 0xFFFFFFFFFFFFFFFFFFFFFFFFFFFFFFFFFFFFFFFFFFFFFFFFFFFFFFFF DUP4 DUP2 DUP4 AND OR DUP4 MSTORE POP POP POP POP PUSH2 0x141 JUMP JUMPDEST POP POP JUMP JUMPDEST PUSH2 0x158 DUP2 PUSH2 0x150 PUSH2 0x15B PUSH2 0x17A JUMP JUMPDEST PUSH4 0xFFFFFFFF AND JUMP JUMPDEST POP JUMP JUMPDEST PUSH0 PUSH11 0x636F6E736F6C652E6C6F67 SWAP1 POP PUSH0 PUSH0 DUP4 MLOAD PUSH1 0x20 DUP6 ADD DUP5 GAS STATICCALL POP POP POP JUMP JUMPDEST PUSH2 0x185 DUP2 SWAP1 POP SWAP2 SWAP1 POP JUMP JUMPDEST PUSH2 0x18D PUSH2 0x343 JUMP JUMPDEST JUMP JUMPDEST PUSH0 DUP2 SWAP1 POP SWAP2 SWAP1 POP JUMP JUMPDEST PUSH32 0x4E487B7100000000000000000000000000000000000000000000000000000000 PUSH0 MSTORE PUSH1 0x11 PUSH1 0x4 MSTORE PUSH1 0x24 PUSH0 REVERT JUMPDEST PUSH0 PUSH2 0x1CF DUP3 PUSH2 0x18F JUMP JUMPDEST SWAP2 POP PUSH2 0x1DA DUP4 PUSH2 0x18F JUMP JUMPDEST SWAP3 POP DUP3 DUP3 MUL PUSH2 0x1E8 DUP2 PUSH2 0x18F JUMP JUMPDEST SWAP2 POP DUP3 DUP3 DIV DUP5 EQ DUP4 ISZERO OR PUSH2 0x1FF JUMPI PUSH2 0x1FE PUSH2 0x198 JUMP JUMPDEST JUMPDEST POP SWAP3 SWAP2 POP POP JUMP JUMPDEST PUSH32 0x4E487B7100000000000000000000000000000000000000000000000000000000 PUSH0 MSTORE PUSH1 0x12 PUSH1 0x4 MSTORE PUSH1 0x24 PUSH0 REVERT JUMPDEST PUSH0 PUSH2 0x23D DUP3 PUSH2 0x18F JUMP JUMPDEST SWAP2 POP PUSH2 0x248 DUP4 PUSH2 0x18F JUMP JUMPDEST SWAP3 POP DUP3 PUSH2 0x258 JUMPI PUSH2 0x257 PUSH2 0x206 JUMP JUMPDEST JUMPDEST DUP3 DUP3 DIV SWAP1 POP SWAP3 SWAP2 POP POP JUMP JUMPDEST PUSH0 PUSH2 0x26D DUP3 PUSH2 0x18F JUMP JUMPDEST SWAP2 POP PUSH2 0x278 DUP4 PUSH2 0x18F JUMP JUMPDEST SWAP3 POP DUP3 DUP3 SUB SWAP1 POP DUP2 DUP2 GT ISZERO PUSH2 0x290 JUMPI PUSH2 0x28F PUSH2 0x198 JUMP JUMPDEST JUMPDEST SWAP3 SWAP2 POP POP JUMP JUMPDEST PUSH0 DUP2 MLOAD SWAP1 POP SWAP2 SWAP1 POP JUMP JUMPDEST PUSH0 DUP3 DUP3 MSTORE PUSH1 0x20 DUP3 ADD SWAP1 POP SWAP3 SWAP2 POP POP JUMP JUMPDEST DUP3 DUP2 DUP4 MCOPY PUSH0 DUP4 DUP4 ADD MSTORE POP POP POP JUMP JUMPDEST PUSH0 PUSH1 0x1F NOT PUSH1 0x1F DUP4 ADD AND SWAP1 POP SWAP2 SWAP1 POP JUMP JUMPDEST PUSH0 PUSH2 0x2D8 DUP3 PUSH2 0x296 JUMP JUMPDEST PUSH2 0x2E2 DUP2 DUP6 PUSH2 0x2A0 JUMP JUMPDEST SWAP4 POP PUSH2 0x2F2 DUP2 DUP6 PUSH1 0x20 DUP7 ADD PUSH2 0x2B0 JUMP JUMPDEST PUSH2 0x2FB DUP2 PUSH2 0x2BE JUMP JUMPDEST DUP5 ADD SWAP2 POP POP SWAP3 SWAP2 POP POP JUMP JUMPDEST PUSH2 0x30F DUP2 PUSH2 0x18F JUMP JUMPDEST DUP3 MSTORE POP POP JUMP JUMPDEST PUSH0 PUSH1 0x40 DUP3 ADD SWAP1 POP DUP2 DUP2 SUB PUSH0 DUP4 ADD MSTORE PUSH2 0x32D DUP2 DUP6 PUSH2 0x2CE JUMP JUMPDEST SWAP1 POP PUSH2 0x33C PUSH1 0x20 DUP4 ADD DUP5 PUSH2 0x306 JUMP JUMPDEST SWAP4 SWAP3 POP POP POP JUMP JUMPDEST PUSH32 0x4E487B7100000000000000000000000000000000000000000000000000000000 PUSH0 MSTORE PUSH1 0x51 PUSH1 0x4 MSTORE PUSH1 0x24 PUSH0 REVERT INVALID LOG2 PUSH5 0x6970667358 0x22 SLT KECCAK256 0x21 CALLCODE STOP CALLDATALOAD 0x2C SGT PUSH17 0xB2BB6B0ED6AE6C51FF5B06D701D7DCB84D JUMPI 0x25 CALLDATALOAD TIMESTAMP 0xDF ADD INVALID 0xB1 PUSH5 0x736F6C6343 STOP ADDMOD 0x1E STOP CALLER "
		},
		"gasEstimates": {
			"creation": {
				"codeDepositCost": "186800",
				"executionCost": "22335",
				"totalCost": "209135"
			},
			"external": {
				"finalPrice()": "infinite"
			}
		},
		"methodIdentifiers": {
			"finalPrice()": "a6b513ee"
		}
	},
	"abi": [
		{
			"inputs": [],
			"name": "finalPrice",
			"outputs": [],
			"stateMutability": "view",
			"type": "function"
		}
	]
}