{
	"data": {
		"bytecode": {
			"linkReferences": {},
			"object": "608060405260645f553480156012575f5ffd5b506103a8806100205f395ff3fe608060405234801561000f575f5ffd5b5060043610610029575f3560e01c8063ab0d92dd1461002d575b5f5ffd5b610035610037565b005b5f606460055f5461004891906101c7565b6100529190610235565b90505f815f546100629190610265565b90506100a36040518060400160405280600d81526020017f546f74616c2070726963653a2000000000000000000000000000000000000000815250826100a7565b5050565b61013f82826040516024016100bd929190610317565b6040516020818303038152906040527fb60e72cc000000000000000000000000000000000000000000000000000000007bffffffffffffffffffffffffffffffffffffffffffffffffffffffff19166020820180517bffffffffffffffffffffffffffffffffffffffffffffffffffffffff8381831617835250505050610143565b5050565b61015a8161015261015d61017c565b63ffffffff16565b50565b5f6a636f6e736f6c652e6c6f6790505f5f835160208501845afa505050565b610187819050919050565b61018f610345565b565b5f819050919050565b7f4e487b71000000000000000000000000000000000000000000000000000000005f52601160045260245ffd5b5f6101d182610191565b91506101dc83610191565b92508282026101ea81610191565b915082820484148315176102015761020061019a565b5b5092915050565b7f4e487b71000000000000000000000000000000000000000000000000000000005f52601260045260245ffd5b5f61023f82610191565b915061024a83610191565b92508261025a57610259610208565b5b828204905092915050565b5f61026f82610191565b915061027a83610191565b92508282019050808211156102925761029161019a565b5b92915050565b5f81519050919050565b5f82825260208201905092915050565b8281835e5f83830152505050565b5f601f19601f8301169050919050565b5f6102da82610298565b6102e481856102a2565b93506102f48185602086016102b2565b6102fd816102c0565b840191505092915050565b61031181610191565b82525050565b5f6040820190508181035f83015261032f81856102d0565b905061033e6020830184610308565b9392505050565b7f4e487b71000000000000000000000000000000000000000000000000000000005f52605160045260245ffdfea2646970667358221220a972be15dbcf2feac5cc50635b98f79ce599eb4f1e35d94f0371f422e0d4ff0064736f6c634300081e0033",
			"opcodes": "PUSH1 0x80 PUSH1 0x40 MSTORE PUSH1 0x64 PUSH0 SSTORE CALLVALUE DUP1 ISZERO PUSH1 0x12 JUMPI PUSH0 PUSH0 REVERT JUMPDEST POP PUSH2 0x3A8 DUP1 PUSH2 0x20 PUSH0 CODECOPY PUSH0 RETURN INVALID PUSH1 0x80 PUSH1 0x40 MSTORE CALLVALUE DUP1 ISZERO PUSH2 0xF JUMPI PUSH0 PUSH0 REVERT JUMPDEST POP PUSH1 0x4 CALLDATASIZE LT PUSH2 0x29 JUMPI PUSH0 CALLDATALOAD PUSH1 0xE0 SHR DUP1 PUSH4 0xAB0D92DD EQ PUSH2 0x2D JUMPI JUMPDEST PUSH0 PUSH0 REVERT JUMPDEST PUSH2 0x35 PUSH2 0x37 JUMP JUMPDEST STOP JUMPDEST PUSH0 PUSH1 0x64 PUSH1 0x5 PUSH0 SLOAD PUSH2 0x48 SWAP2 SWAP1 PUSH2 0x1C7 JUMP JUMPDEST PUSH2 0x52 SWAP2 SWAP1 PUSH2 0x235 JUMP JUMPDEST SWAP1 POP PUSH0 DUP2 PUSH0 SLOAD PUSH2 0x62 SWAP2 SWAP1 PUSH2 0x265 JUMP JUMPDEST SWAP1 POP PUSH2 0xA3 PUSH1 0x40 MLOAD DUP1 PUSH1 0x40 ADD PUSH1 0x40 MSTORE DUP1 PUSH1 0xD DUP2 MSTORE PUSH1 0x20 ADD PUSH32 0x546F74616C2070726963653A2000000000000000000000000000000000000000 DUP2 MSTORE POP DUP3 PUSH2 0xA7 JUMP JUMPDEST POP POP JUMP JUMPDEST PUSH2 0x13F DUP3 DUP3 PUSH1 0x40 MLOAD PUSH1 0x24 ADD PUSH2 0xBD SWAP3 SWAP2 SWAP1 PUSH2 0x317 JUMP JUMPDEST PUSH1 0x40 MLOAD PUSH1 0x20 DUP2 DUP4 SUB SUB DUP2 MSTORE SWAP1 PUSH1 0x40 MSTORE PUSH32 0xB60E72CC00000000000000000000000000000000000000000000000000000000 PUSH28 0xFFFFFFFFFFFFFFFFFFFFFFFFFFFFFFFFFFFFFFFFFFFFFFFFFFFFFFFF NOT AND PUSH1 0x20 DUP3 ADD DUP1 MLOAD PUSH28 0xFFFFFFFFFFFFFFFFFFFFFFFFFFFFFFFFFFFFFFFFFFFFFFFFFFFFFFFF DUP4 DUP2 DUP4 AND OR DUP4 MSTORE POP POP POP POP PUSH2 0x143 JUMP JUMPDEST POP POP JUMP JUMPDEST PUSH2 0x15A DUP2 PUSH2 0x152 PUSH2 0x15D PUSH2 0x17C JUMP JUMPDEST PUSH4 0xFFFFFFFF AND JUMP JUMPDEST POP JUMP JUMPDEST PUSH0 PUSH11 0x636F6E736F6C652E6C6F67 SWAP1 POP PUSH0 PUSH0 DUP4 MLOAD PUSH1 0x20 DUP6 ADD DUP5 GAS STATICCALL POP POP POP JUMP JUMPDEST PUSH2 0x187 DUP2 SWAP1 POP SWAP2 SWAP1 POP JUMP JUMPDEST PUSH2 0x18F PUSH2 0x345 JUMP JUMPDEST JUMP JUMPDEST PUSH0 DUP2 SWAP1 POP SWAP2 SWAP1 POP JUMP JUMPDEST PUSH32 0x4E487B7100000000000000000000000000000000000000000000000000000000 PUSH0 MSTORE PUSH1 0x11 PUSH1 0x4 MSTORE PUSH1 0x24 PUSH0 REVERT JUMPDEST PUSH0 PUSH2 0x1D1 DUP3 PUSH2 0x191 JUMP JUMPDEST SWAP2 POP PUSH2 0x1DC DUP4 PUSH2 0x191 JUMP JUMPDEST SWAP3 POP DUP3 DUP3 MUL PUSH2 0x1EA DUP2 PUSH2 0x191 JUMP JUMPDEST SWAP2 POP DUP3 DUP3 DIV DUP5 EQ DUP4 ISZERO OR PUSH2 0x201 JUMPI PUSH2 0x200 PUSH2 0x19A JUMP JUMPDEST JUMPDEST POP SWAP3 SWAP2 POP POP JUMP JUMPDEST PUSH32 0x4E487B7100000000000000000000000000000000000000000000000000000000 PUSH0 MSTORE PUSH1 0x12 PUSH1 0x4 MSTORE PUSH1 0x24 PUSH0 REVERT JUMPDEST PUSH0 PUSH2 0x23F DUP3 PUSH2 0x191 JUMP JUMPDEST SWAP2 POP PUSH2 0x24A DUP4 PUSH2 0x191 JUMP JUMPDEST SWAP3 POP DUP3 PUSH2 0x25A JUMPI PUSH2 0x259 PUSH2 0x208 JUMP JUMPDEST JUMPDEST DUP3 DUP3 DIV SWAP1 POP SWAP3 SWAP2 POP POP JUMP JUMPDEST PUSH0 PUSH2 0x26F DUP3 PUSH2 0x191 JUMP JUMPDEST SWAP2 POP PUSH2 0x27A DUP4 PUSH2 0x191 JUMP JUMPDEST SWAP3 POP DUP3 DUP3 ADD SWAP1 POP DUP1 DUP3 GT ISZERO PUSH2 0x292 JUMPI PUSH2 0x291 PUSH2 0x19A JUMP JUMPDEST JUMPDEST SWAP3 SWAP2 POP POP JUMP JUMPDEST PUSH0 DUP2 MLOAD SWAP1 POP SWAP2 SWAP1 POP JUMP JUMPDEST PUSH0 DUP3 DUP3 MSTORE PUSH1 0x20 DUP3 ADD SWAP1 POP SWAP3 SWAP2 POP POP JUMP JUMPDEST DUP3 DUP2 DUP4 MCOPY PUSH0 DUP4 DUP4 ADD MSTORE POP POP POP JUMP JUMPDEST PUSH0 PUSH1 0x1F NOT PUSH1 0x1F DUP4 ADD AND SWAP1 POP SWAP2 SWAP1 POP JUMP JUMPDEST PUSH0 PUSH2 0x2DA DUP3 PUSH2 0x298 JUMP JUMPDEST PUSH2 0x2E4 DUP2 DUP6 PUSH2 0x2A2 JUMP JUMPDEST SWAP4 POP PUSH2 0x2F4 DUP2 DUP6 PUSH1 0x20 DUP7 ADD PUSH2 0x2B2 JUMP JUMPDEST PUSH2 0x2FD DUP2 PUSH2 0x2C0 JUMP JUMPDEST DUP5 ADD SWAP2 POP POP SWAP3 SWAP2 POP POP JUMP JUMPDEST PUSH2 0x311 DUP2 PUSH2 0x191 JUMP JUMPDEST DUP3 MSTORE POP POP JUMP JUMPDEST PUSH0 PUSH1 0x40 DUP3 ADD SWAP1 POP DUP2 DUP2 SUB PUSH0 DUP4 ADD MSTORE PUSH2 0x32F DUP2 DUP6 PUSH2 0x2D0 JUMP JUMPDEST SWAP1 POP PUSH2 0x33E PUSH1 0x20 DUP4 ADD DUP5 PUSH2 0x308 JUMP JUMPDEST SWAP4 SWAP3 POP POP POP JUMP JUMPDEST PUSH32 0x4E487B7100000000000000000000000000000000000000000000000000000000 PUSH0 MSTORE PUSH1 0x51 PUSH1 0x4 MSTORE PUSH1 0x24 PUSH0 REVERT INVALID LOG2 PUSH5 0x6970667358 0x22 SLT KECCAK256 0xA9 PUSH19 0xBE15DBCF2FEAC5CC50635B98F79CE599EB4F1E CALLDATALOAD 0xD9 0x4F SUB PUSH18 0xF422E0D4FF0064736F6C634300081E003300 "
		},
		"gasEstimates": {
			"creation": {
				"codeDepositCost": "187200",
				"executionCost": "22335",
				"totalCost": "209535"
			},
			"external": {
				"totalPrice()": "infinite"
			}
		},
		"methodIdentifiers": {
			"totalPrice()": "ab0d92dd"
		}
	},
	"abi": [
		{
			"inputs": [],
			"name": "totalPrice",
			"outputs": [],
			"stateMutability": "view",
			"type": "function"
		}
	]
}