{
	"data": {
		"bytecode": {
			"linkReferences": {},
			"object": "608060405260145f55601e6001556028600255348015601c575f5ffd5b506101b68061002a5f395ff3fe608060405234801561000f575f5ffd5b506004361061003f575f3560e01c806354f11ae21461004357806367e919b614610063578063c2211f4814610081575b5f5ffd5b61004b61009d565b60405161005a939291906100d9565b60405180910390f35b61006b6100b3565b604051610078919061010e565b60405180910390f35b61009b60048036038101906100969190610155565b6100b8565b005b5f5f5f5f54925060015491506002549050909192565b5f5481565b805f8190555050565b5f819050919050565b6100d3816100c1565b82525050565b5f6060820190506100ec5f8301866100ca565b6100f960208301856100ca565b61010660408301846100ca565b949350505050565b5f6020820190506101215f8301846100ca565b92915050565b5f5ffd5b610134816100c1565b811461013e575f5ffd5b50565b5f8135905061014f8161012b565b92915050565b5f6020828403121561016a57610169610127565b5b5f61017784828501610141565b9150509291505056fea2646970667358221220faaa6fa24a2bb9d67521b8e6c0f52bc153cbaac5459f9ac1b88aa7c1d8f3f11c64736f6c634300081e0033",
			"opcodes": "PUSH1 0x80 PUSH1 0x40 MSTORE PUSH1 0x14 PUSH0 SSTORE PUSH1 0x1E PUSH1 0x1 SSTORE PUSH1 0x28 PUSH1 0x2 SSTORE CALLVALUE DUP1 ISZERO PUSH1 0x1C JUMPI PUSH0 PUSH0 REVERT JUMPDEST POP PUSH2 0x1B6 DUP1 PUSH2 0x2A PUSH0 CODECOPY PUSH0 RETURN INVALID PUSH1 0x80 PUSH1 0x40 MSTORE CALLVALUE DUP1 ISZERO PUSH2 0xF JUMPI PUSH0 PUSH0 REVERT JUMPDEST POP PUSH1 0x4 CALLDATASIZE LT PUSH2 0x3F JUMPI PUSH0 CALLDATALOAD PUSH1 0xE0 SHR DUP1 PUSH4 0x54F11AE2 EQ PUSH2 0x43 JUMPI DUP1 PUSH4 0x67E919B6 EQ PUSH2 0x63 JUMPI DUP1 PUSH4 0xC2211F48 EQ PUSH2 0x81 JUMPI JUMPDEST PUSH0 PUSH0 REVERT JUMPDEST PUSH2 0x4B PUSH2 0x9D JUMP JUMPDEST PUSH1 0x40 MLOAD PUSH2 0x5A SWAP4 SWAP3 SWAP2 SWAP1 PUSH2 0xD9 JUMP JUMPDEST PUSH1 0x40 MLOAD DUP1 SWAP2 SUB SWAP1 RETURN JUMPDEST PUSH2 0x6B PUSH2 0xB3 JUMP JUMPDEST PUSH1 0x40 MLOAD PUSH2 0x78 SWAP2 SWAP1 PUSH2 0x10E JUMP JUMPDEST PUSH1 0x40 MLOAD DUP1 SWAP2 SUB SWAP1 RETURN JUMPDEST PUSH2 0x9B PUSH1 0x4 DUP1 CALLDATASIZE SUB DUP2 ADD SWAP1 PUSH2 0x96 SWAP2 SWAP1 PUSH2 0x155 JUMP JUMPDEST PUSH2 0xB8 JUMP JUMPDEST STOP JUMPDEST PUSH0 PUSH0 PUSH0 PUSH0 SLOAD SWAP3 POP PUSH1 0x1 SLOAD SWAP2 POP PUSH1 0x2 SLOAD SWAP1 POP SWAP1 SWAP2 SWAP3 JUMP JUMPDEST PUSH0 SLOAD DUP2 JUMP JUMPDEST DUP1 PUSH0 DUP2 SWAP1 SSTORE POP POP JUMP JUMPDEST PUSH0 DUP2 SWAP1 POP SWAP2 SWAP1 POP JUMP JUMPDEST PUSH2 0xD3 DUP2 PUSH2 0xC1 JUMP JUMPDEST DUP3 MSTORE POP POP JUMP JUMPDEST PUSH0 PUSH1 0x60 DUP3 ADD SWAP1 POP PUSH2 0xEC PUSH0 DUP4 ADD DUP7 PUSH2 0xCA JUMP JUMPDEST PUSH2 0xF9 PUSH1 0x20 DUP4 ADD DUP6 PUSH2 0xCA JUMP JUMPDEST PUSH2 0x106 PUSH1 0x40 DUP4 ADD DUP5 PUSH2 0xCA JUMP JUMPDEST SWAP5 SWAP4 POP POP POP POP JUMP JUMPDEST PUSH0 PUSH1 0x20 DUP3 ADD SWAP1 POP PUSH2 0x121 PUSH0 DUP4 ADD DUP5 PUSH2 0xCA JUMP JUMPDEST SWAP3 SWAP2 POP POP JUMP JUMPDEST PUSH0 PUSH0 REVERT JUMPDEST PUSH2 0x134 DUP2 PUSH2 0xC1 JUMP JUMPDEST DUP2 EQ PUSH2 0x13E JUMPI PUSH0 PUSH0 REVERT JUMPDEST POP JUMP JUMPDEST PUSH0 DUP2 CALLDATALOAD SWAP1 POP PUSH2 0x14F DUP2 PUSH2 0x12B JUMP JUMPDEST SWAP3 SWAP2 POP POP JUMP JUMPDEST PUSH0 PUSH1 0x20 DUP3 DUP5 SUB SLT ISZERO PUSH2 0x16A JUMPI PUSH2 0x169 PUSH2 0x127 JUMP JUMPDEST JUMPDEST PUSH0 PUSH2 0x177 DUP5 DUP3 DUP6 ADD PUSH2 0x141 JUMP JUMPDEST SWAP2 POP POP SWAP3 SWAP2 POP POP JUMP INVALID LOG2 PUSH5 0x6970667358 0x22 SLT KECCAK256 STATICCALL 0xAA PUSH16 0xA24A2BB9D67521B8E6C0F52BC153CBAA 0xC5 GASLIMIT SWAP16 SWAP11 0xC1 0xB8 DUP11 0xA7 0xC1 0xD8 RETURN CALL SHR PUSH5 0x736F6C6343 STOP ADDMOD 0x1E STOP CALLER "
		},
		"gasEstimates": {
			"creation": {
				"codeDepositCost": "87600",
				"executionCost": "66450",
				"totalCost": "154050"
			},
			"external": {
				"getAllInBase()": "infinite",
				"setVar1(uint256)": "22536",
				"var1()": "2424"
			}
		},
		"methodIdentifiers": {
			"getAllInBase()": "54f11ae2",
			"setVar1(uint256)": "c2211f48",
			"var1()": "67e919b6"
		}
	},
	"abi": [
		{
			"inputs": [],
			"name": "getAllInBase",
			"outputs": [
				{
					"internalType": "uint256",
					"name": "global",
					"type": "uint256"
				},
				{
					"internalType": "uint256",
					"name": "unique",
					"type": "uint256"
				},
				{
					"internalType": "uint256",
					"name": "local",
					"type": "uint256"
				}
			],
			"stateMutability": "view",
			"type": "function"
		},
		{
			"inputs": [
				{
					"internalType": "uint256",
					"name": "value",
					"type": "uint256"
				}
			],
			"name": "setVar1",
			"outputs": [],
			"stateMutability": "nonpayable",
			"type": "function"
		},
		{
			"inputs": [],
			"name": "var1",
			"outputs": [
				{
					"internalType": "uint256",
					"name": "",
					"type": "uint256"
				}
			],
			"stateMutability": "view",
			"type": "function"
		}
	]
}