{
	"data": {
		"bytecode": {
			"linkReferences": {},
			"object": "608060405260145f55601e6001556028600255348015601c575f5ffd5b506102168061002a5f395ff3fe608060405234801561000f575f5ffd5b506004361061004a575f3560e01c806338ce6f301461004e57806354f11ae21461006d57806367e919b61461008d578063c2211f48146100ab575b5f5ffd5b6100566100c7565b604051610064929190610112565b60405180910390f35b6100756100d6565b60405161008493929190610139565b60405180910390f35b6100956100ec565b6040516100a2919061016e565b60405180910390f35b6100c560048036038101906100c091906101b5565b6100f1565b005b5f5f5f54600254915091509091565b5f5f5f5f54925060015491506002549050909192565b5f5481565b805f8190555050565b5f819050919050565b61010c816100fa565b82525050565b5f6040820190506101255f830185610103565b6101326020830184610103565b9392505050565b5f60608201905061014c5f830186610103565b6101596020830185610103565b6101666040830184610103565b949350505050565b5f6020820190506101815f830184610103565b92915050565b5f5ffd5b610194816100fa565b811461019e575f5ffd5b50565b5f813590506101af8161018b565b92915050565b5f602082840312156101ca576101c9610187565b5b5f6101d7848285016101a1565b9150509291505056fea2646970667358221220036e55783a0fb36180a1389f47ca965ee5a64588991f428737a84664c22cbaaa64736f6c634300081e0033",
			"opcodes": "PUSH1 0x80 PUSH1 0x40 MSTORE PUSH1 0x14 PUSH0 SSTORE PUSH1 0x1E PUSH1 0x1 SSTORE PUSH1 0x28 PUSH1 0x2 SSTORE CALLVALUE DUP1 ISZERO PUSH1 0x1C JUMPI PUSH0 PUSH0 REVERT JUMPDEST POP PUSH2 0x216 DUP1 PUSH2 0x2A PUSH0 CODECOPY PUSH0 RETURN INVALID PUSH1 0x80 PUSH1 0x40 MSTORE CALLVALUE DUP1 ISZERO PUSH2 0xF JUMPI PUSH0 PUSH0 REVERT JUMPDEST POP PUSH1 0x4 CALLDATASIZE LT PUSH2 0x4A JUMPI PUSH0 CALLDATALOAD PUSH1 0xE0 SHR DUP1 PUSH4 0x38CE6F30 EQ PUSH2 0x4E JUMPI DUP1 PUSH4 0x54F11AE2 EQ PUSH2 0x6D JUMPI DUP1 PUSH4 0x67E919B6 EQ PUSH2 0x8D JUMPI DUP1 PUSH4 0xC2211F48 EQ PUSH2 0xAB JUMPI JUMPDEST PUSH0 PUSH0 REVERT JUMPDEST PUSH2 0x56 PUSH2 0xC7 JUMP JUMPDEST PUSH1 0x40 MLOAD PUSH2 0x64 SWAP3 SWAP2 SWAP1 PUSH2 0x112 JUMP JUMPDEST PUSH1 0x40 MLOAD DUP1 SWAP2 SUB SWAP1 RETURN JUMPDEST PUSH2 0x75 PUSH2 0xD6 JUMP JUMPDEST PUSH1 0x40 MLOAD PUSH2 0x84 SWAP4 SWAP3 SWAP2 SWAP1 PUSH2 0x139 JUMP JUMPDEST PUSH1 0x40 MLOAD DUP1 SWAP2 SUB SWAP1 RETURN JUMPDEST PUSH2 0x95 PUSH2 0xEC JUMP JUMPDEST PUSH1 0x40 MLOAD PUSH2 0xA2 SWAP2 SWAP1 PUSH2 0x16E JUMP JUMPDEST PUSH1 0x40 MLOAD DUP1 SWAP2 SUB SWAP1 RETURN JUMPDEST PUSH2 0xC5 PUSH1 0x4 DUP1 CALLDATASIZE SUB DUP2 ADD SWAP1 PUSH2 0xC0 SWAP2 SWAP1 PUSH2 0x1B5 JUMP JUMPDEST PUSH2 0xF1 JUMP JUMPDEST STOP JUMPDEST PUSH0 PUSH0 PUSH0 SLOAD PUSH1 0x2 SLOAD SWAP2 POP SWAP2 POP SWAP1 SWAP2 JUMP JUMPDEST PUSH0 PUSH0 PUSH0 PUSH0 SLOAD SWAP3 POP PUSH1 0x1 SLOAD SWAP2 POP PUSH1 0x2 SLOAD SWAP1 POP SWAP1 SWAP2 SWAP3 JUMP JUMPDEST PUSH0 SLOAD DUP2 JUMP JUMPDEST DUP1 PUSH0 DUP2 SWAP1 SSTORE POP POP JUMP JUMPDEST PUSH0 DUP2 SWAP1 POP SWAP2 SWAP1 POP JUMP JUMPDEST PUSH2 0x10C DUP2 PUSH2 0xFA JUMP JUMPDEST DUP3 MSTORE POP POP JUMP JUMPDEST PUSH0 PUSH1 0x40 DUP3 ADD SWAP1 POP PUSH2 0x125 PUSH0 DUP4 ADD DUP6 PUSH2 0x103 JUMP JUMPDEST PUSH2 0x132 PUSH1 0x20 DUP4 ADD DUP5 PUSH2 0x103 JUMP JUMPDEST SWAP4 SWAP3 POP POP POP JUMP JUMPDEST PUSH0 PUSH1 0x60 DUP3 ADD SWAP1 POP PUSH2 0x14C PUSH0 DUP4 ADD DUP7 PUSH2 0x103 JUMP JUMPDEST PUSH2 0x159 PUSH1 0x20 DUP4 ADD DUP6 PUSH2 0x103 JUMP JUMPDEST PUSH2 0x166 PUSH1 0x40 DUP4 ADD DUP5 PUSH2 0x103 JUMP JUMPDEST SWAP5 SWAP4 POP POP POP POP JUMP JUMPDEST PUSH0 PUSH1 0x20 DUP3 ADD SWAP1 POP PUSH2 0x181 PUSH0 DUP4 ADD DUP5 PUSH2 0x103 JUMP JUMPDEST SWAP3 SWAP2 POP POP JUMP JUMPDEST PUSH0 PUSH0 REVERT JUMPDEST PUSH2 0x194 DUP2 PUSH2 0xFA JUMP JUMPDEST DUP2 EQ PUSH2 0x19E JUMPI PUSH0 PUSH0 REVERT JUMPDEST POP JUMP JUMPDEST PUSH0 DUP2 CALLDATALOAD SWAP1 POP PUSH2 0x1AF DUP2 PUSH2 0x18B JUMP JUMPDEST SWAP3 SWAP2 POP POP JUMP JUMPDEST PUSH0 PUSH1 0x20 DUP3 DUP5 SUB SLT ISZERO PUSH2 0x1CA JUMPI PUSH2 0x1C9 PUSH2 0x187 JUMP JUMPDEST JUMPDEST PUSH0 PUSH2 0x1D7 DUP5 DUP3 DUP6 ADD PUSH2 0x1A1 JUMP JUMPDEST SWAP2 POP POP SWAP3 SWAP2 POP POP JUMP INVALID LOG2 PUSH5 0x6970667358 0x22 SLT KECCAK256 SUB PUSH15 0x55783A0FB36180A1389F47CA965EE5 0xA6 GASLIMIT DUP9 SWAP10 0x1F TIMESTAMP DUP8 CALLDATACOPY 0xA8 CHAINID PUSH5 0xC22CBAAA64 PUSH20 0x6F6C634300081E00330000000000000000000000 "
		},
		"gasEstimates": {
			"creation": {
				"codeDepositCost": "106800",
				"executionCost": "66468",
				"totalCost": "173268"
			},
			"external": {
				"getAllInBase()": "infinite",
				"getAllInDelived()": "infinite",
				"setVar1(uint256)": "22558",
				"var1()": "2446"
			}
		},
		"methodIdentifiers": {
			"getAllInBase()": "54f11ae2",
			"getAllInDelived()": "38ce6f30",
			"setVar1(uint256)": "c2211f48",
			"var1()": "67e919b6"
		}
	},
	"abi": [
		{
			"inputs": [],
			"name": "getAllInBase",
			"outputs": [
				{
					"internalType": "uint256",
					"name": "global",
					"type": "uint256"
				},
				{
					"internalType": "uint256",
					"name": "unique",
					"type": "uint256"
				},
				{
					"internalType": "uint256",
					"name": "local",
					"type": "uint256"
				}
			],
			"stateMutability": "view",
			"type": "function"
		},
		{
			"inputs": [],
			"name": "getAllInDelived",
			"outputs": [
				{
					"internalType": "uint256",
					"name": "",
					"type": "uint256"
				},
				{
					"internalType": "uint256",
					"name": "",
					"type": "uint256"
				}
			],
			"stateMutability": "view",
			"type": "function"
		},
		{
			"inputs": [
				{
					"internalType": "uint256",
					"name": "value",
					"type": "uint256"
				}
			],
			"name": "setVar1",
			"outputs": [],
			"stateMutability": "nonpayable",
			"type": "function"
		},
		{
			"inputs": [],
			"name": "var1",
			"outputs": [
				{
					"internalType": "uint256",
					"name": "",
					"type": "uint256"
				}
			],
			"stateMutability": "view",
			"type": "function"
		}
	]
}