{
	"data": {
		"bytecode": {
			"linkReferences": {},
			"object": "608060405260195f553480156012575f5ffd5b506103f2806100205f395ff3fe608060405234801561000f575f5ffd5b5060043610610034575f3560e01c80632e7e3de414610038578063d58beb2d14610056575b5f5ffd5b610040610060565b60405161004d91906101b5565b60405180910390f35b61005e610065565b005b5f5481565b5f6020600560095f5461007891906101fb565b6100829190610269565b61008c9190610299565b90506100b060405180606001604052806025815260200161039860259139826100b3565b50565b61014b82826040516024016100c992919061033c565b6040516020818303038152906040527fb60e72cc000000000000000000000000000000000000000000000000000000007bffffffffffffffffffffffffffffffffffffffffffffffffffffffff19166020820180517bffffffffffffffffffffffffffffffffffffffffffffffffffffffff838183161783525050505061014f565b5050565b6101668161015e610169610188565b63ffffffff16565b50565b5f6a636f6e736f6c652e6c6f6790505f5f835160208501845afa505050565b610193819050919050565b61019b61036a565b565b5f819050919050565b6101af8161019d565b82525050565b5f6020820190506101c85f8301846101a6565b92915050565b7f4e487b71000000000000000000000000000000000000000000000000000000005f52601160045260245ffd5b5f6102058261019d565b91506102108361019d565b925082820261021e8161019d565b91508282048414831517610235576102346101ce565b5b5092915050565b7f4e487b71000000000000000000000000000000000000000000000000000000005f52601260045260245ffd5b5f6102738261019d565b915061027e8361019d565b92508261028e5761028d61023c565b5b828204905092915050565b5f6102a38261019d565b91506102ae8361019d565b92508282019050808211156102c6576102c56101ce565b5b92915050565b5f81519050919050565b5f82825260208201905092915050565b8281835e5f83830152505050565b5f601f19601f8301169050919050565b5f61030e826102cc565b61031881856102d6565b93506103288185602086016102e6565b610331816102f4565b840191505092915050565b5f6040820190508181035f8301526103548185610304565b905061036360208301846101a6565b9392505050565b7f4e487b71000000000000000000000000000000000000000000000000000000005f52605160045260245ffdfe46616872656e6865697420636f6e76657273696f6e206f662032352043656c736975733a20a26469706673582212205085813c93acb703683d44b3d12d2f16cba83170a65882f6cf52019926507b0764736f6c634300081e0033",
			"opcodes": "PUSH1 0x80 PUSH1 0x40 MSTORE PUSH1 0x19 PUSH0 SSTORE CALLVALUE DUP1 ISZERO PUSH1 0x12 JUMPI PUSH0 PUSH0 REVERT JUMPDEST POP PUSH2 0x3F2 DUP1 PUSH2 0x20 PUSH0 CODECOPY PUSH0 RETURN INVALID PUSH1 0x80 PUSH1 0x40 MSTORE CALLVALUE DUP1 ISZERO PUSH2 0xF JUMPI PUSH0 PUSH0 REVERT JUMPDEST POP PUSH1 0x4 CALLDATASIZE LT PUSH2 0x34 JUMPI PUSH0 CALLDATALOAD PUSH1 0xE0 SHR DUP1 PUSH4 0x2E7E3DE4 EQ PUSH2 0x38 JUMPI DUP1 PUSH4 0xD58BEB2D EQ PUSH2 0x56 JUMPI JUMPDEST PUSH0 PUSH0 REVERT JUMPDEST PUSH2 0x40 PUSH2 0x60 JUMP JUMPDEST PUSH1 0x40 MLOAD PUSH2 0x4D SWAP2 SWAP1 PUSH2 0x1B5 JUMP JUMPDEST PUSH1 0x40 MLOAD DUP1 SWAP2 SUB SWAP1 RETURN JUMPDEST PUSH2 0x5E PUSH2 0x65 JUMP JUMPDEST STOP JUMPDEST PUSH0 SLOAD DUP2 JUMP JUMPDEST PUSH0 PUSH1 0x20 PUSH1 0x5 PUSH1 0x9 PUSH0 SLOAD PUSH2 0x78 SWAP2 SWAP1 PUSH2 0x1FB JUMP JUMPDEST PUSH2 0x82 SWAP2 SWAP1 PUSH2 0x269 JUMP JUMPDEST PUSH2 0x8C SWAP2 SWAP1 PUSH2 0x299 JUMP JUMPDEST SWAP1 POP PUSH2 0xB0 PUSH1 0x40 MLOAD DUP1 PUSH1 0x60 ADD PUSH1 0x40 MSTORE DUP1 PUSH1 0x25 DUP2 MSTORE PUSH1 0x20 ADD PUSH2 0x398 PUSH1 0x25 SWAP2 CODECOPY DUP3 PUSH2 0xB3 JUMP JUMPDEST POP JUMP JUMPDEST PUSH2 0x14B DUP3 DUP3 PUSH1 0x40 MLOAD PUSH1 0x24 ADD PUSH2 0xC9 SWAP3 SWAP2 SWAP1 PUSH2 0x33C JUMP JUMPDEST PUSH1 0x40 MLOAD PUSH1 0x20 DUP2 DUP4 SUB SUB DUP2 MSTORE SWAP1 PUSH1 0x40 MSTORE PUSH32 0xB60E72CC00000000000000000000000000000000000000000000000000000000 PUSH28 0xFFFFFFFFFFFFFFFFFFFFFFFFFFFFFFFFFFFFFFFFFFFFFFFFFFFFFFFF NOT AND PUSH1 0x20 DUP3 ADD DUP1 MLOAD PUSH28 0xFFFFFFFFFFFFFFFFFFFFFFFFFFFFFFFFFFFFFFFFFFFFFFFFFFFFFFFF DUP4 DUP2 DUP4 AND OR DUP4 MSTORE POP POP POP POP PUSH2 0x14F JUMP JUMPDEST POP POP JUMP JUMPDEST PUSH2 0x166 DUP2 PUSH2 0x15E PUSH2 0x169 PUSH2 0x188 JUMP JUMPDEST PUSH4 0xFFFFFFFF AND JUMP JUMPDEST POP JUMP JUMPDEST PUSH0 PUSH11 0x636F6E736F6C652E6C6F67 SWAP1 POP PUSH0 PUSH0 DUP4 MLOAD PUSH1 0x20 DUP6 ADD DUP5 GAS STATICCALL POP POP POP JUMP JUMPDEST PUSH2 0x193 DUP2 SWAP1 POP SWAP2 SWAP1 POP JUMP JUMPDEST PUSH2 0x19B PUSH2 0x36A JUMP JUMPDEST JUMP JUMPDEST PUSH0 DUP2 SWAP1 POP SWAP2 SWAP1 POP JUMP JUMPDEST PUSH2 0x1AF DUP2 PUSH2 0x19D JUMP JUMPDEST DUP3 MSTORE POP POP JUMP JUMPDEST PUSH0 PUSH1 0x20 DUP3 ADD SWAP1 POP PUSH2 0x1C8 PUSH0 DUP4 ADD DUP5 PUSH2 0x1A6 JUMP JUMPDEST SWAP3 SWAP2 POP POP JUMP JUMPDEST PUSH32 0x4E487B7100000000000000000000000000000000000000000000000000000000 PUSH0 MSTORE PUSH1 0x11 PUSH1 0x4 MSTORE PUSH1 0x24 PUSH0 REVERT JUMPDEST PUSH0 PUSH2 0x205 DUP3 PUSH2 0x19D JUMP JUMPDEST SWAP2 POP PUSH2 0x210 DUP4 PUSH2 0x19D JUMP JUMPDEST SWAP3 POP DUP3 DUP3 MUL PUSH2 0x21E DUP2 PUSH2 0x19D JUMP JUMPDEST SWAP2 POP DUP3 DUP3 DIV DUP5 EQ DUP4 ISZERO OR PUSH2 0x235 JUMPI PUSH2 0x234 PUSH2 0x1CE JUMP JUMPDEST JUMPDEST POP SWAP3 SWAP2 POP POP JUMP JUMPDEST PUSH32 0x4E487B7100000000000000000000000000000000000000000000000000000000 PUSH0 MSTORE PUSH1 0x12 PUSH1 0x4 MSTORE PUSH1 0x24 PUSH0 REVERT JUMPDEST PUSH0 PUSH2 0x273 DUP3 PUSH2 0x19D JUMP JUMPDEST SWAP2 POP PUSH2 0x27E DUP4 PUSH2 0x19D JUMP JUMPDEST SWAP3 POP DUP3 PUSH2 0x28E JUMPI PUSH2 0x28D PUSH2 0x23C JUMP JUMPDEST JUMPDEST DUP3 DUP3 DIV SWAP1 POP SWAP3 SWAP2 POP POP JUMP JUMPDEST PUSH0 PUSH2 0x2A3 DUP3 PUSH2 0x19D JUMP JUMPDEST SWAP2 POP PUSH2 0x2AE DUP4 PUSH2 0x19D JUMP JUMPDEST SWAP3 POP DUP3 DUP3 ADD SWAP1 POP DUP1 DUP3 GT ISZERO PUSH2 0x2C6 JUMPI PUSH2 0x2C5 PUSH2 0x1CE JUMP JUMPDEST JUMPDEST SWAP3 SWAP2 POP POP JUMP JUMPDEST PUSH0 DUP2 MLOAD SWAP1 POP SWAP2 SWAP1 POP JUMP JUMPDEST PUSH0 DUP3 DUP3 MSTORE PUSH1 0x20 DUP3 ADD SWAP1 POP SWAP3 SWAP2 POP POP JUMP JUMPDEST DUP3 DUP2 DUP4 MCOPY PUSH0 DUP4 DUP4 ADD MSTORE POP POP POP JUMP JUMPDEST PUSH0 PUSH1 0x1F NOT PUSH1 0x1F DUP4 ADD AND SWAP1 POP SWAP2 SWAP1 POP JUMP JUMPDEST PUSH0 PUSH2 0x30E DUP3 PUSH2 0x2CC JUMP JUMPDEST PUSH2 0x318 DUP2 DUP6 PUSH2 0x2D6 JUMP JUMPDEST SWAP4 POP PUSH2 0x328 DUP2 DUP6 PUSH1 0x20 DUP7 ADD PUSH2 0x2E6 JUMP JUMPDEST PUSH2 0x331 DUP2 PUSH2 0x2F4 JUMP JUMPDEST DUP5 ADD SWAP2 POP POP SWAP3 SWAP2 POP POP JUMP JUMPDEST PUSH0 PUSH1 0x40 DUP3 ADD SWAP1 POP DUP2 DUP2 SUB PUSH0 DUP4 ADD MSTORE PUSH2 0x354 DUP2 DUP6 PUSH2 0x304 JUMP JUMPDEST SWAP1 POP PUSH2 0x363 PUSH1 0x20 DUP4 ADD DUP5 PUSH2 0x1A6 JUMP JUMPDEST SWAP4 SWAP3 POP POP POP JUMP JUMPDEST PUSH32 0x4E487B7100000000000000000000000000000000000000000000000000000000 PUSH0 MSTORE PUSH1 0x51 PUSH1 0x4 MSTORE PUSH1 0x24 PUSH0 REVERT INVALID CHAINID PUSH2 0x6872 PUSH6 0x6E6865697420 PUSH4 0x6F6E7665 PUSH19 0x73696F6E206F662032352043656C736975733A KECCAK256 LOG2 PUSH5 0x6970667358 0x22 SLT KECCAK256 POP DUP6 DUP2 EXTCODECOPY SWAP4 0xAC 0xB7 SUB PUSH9 0x3D44B3D12D2F16CBA8 BALANCE PUSH17 0xA65882F6CF52019926507B0764736F6C63 NUMBER STOP ADDMOD 0x1E STOP CALLER "
		},
		"gasEstimates": {
			"creation": {
				"codeDepositCost": "202000",
				"executionCost": "22348",
				"totalCost": "224348"
			},
			"external": {
				"FahrenheitConversion()": "infinite",
				"celsius()": "2402"
			}
		},
		"methodIdentifiers": {
			"FahrenheitConversion()": "d58beb2d",
			"celsius()": "2e7e3de4"
		}
	},
	"abi": [
		{
			"inputs": [],
			"name": "FahrenheitConversion",
			"outputs": [],
			"stateMutability": "view",
			"type": "function"
		},
		{
			"inputs": [],
			"name": "celsius",
			"outputs": [
				{
					"internalType": "uint256",
					"name": "",
					"type": "uint256"
				}
			],
			"stateMutability": "view",
			"type": "function"
		}
	]
}