{
	"data": {
		"bytecode": {
			"linkReferences": {},
			"object": "608060405260645f5f6101000a81548161ffff021916908361ffff160217905550348015602a575f5ffd5b50610404806100385f395ff3fe608060405234801561000f575f5ffd5b5060043610610029575f3560e01c8063b04828bb1461002d575b5f5ffd5b61003561004b565b60405161004291906101e4565b60405180910390f35b5f5f606460055f5f9054906101000a900461ffff1661006a9190610237565b61007491906102a0565b61ffff1690505f815f5f9054906101000a900461ffff1661ffff1661009991906102d0565b90506100da6040518060400160405280600c81526020017f5461782070616964206973200000000000000000000000000000000000000000815250836100e2565b809250505090565b61017a82826040516024016100f8929190610373565b6040516020818303038152906040527fb60e72cc000000000000000000000000000000000000000000000000000000007bffffffffffffffffffffffffffffffffffffffffffffffffffffffff19166020820180517bffffffffffffffffffffffffffffffffffffffffffffffffffffffff838183161783525050505061017e565b5050565b6101958161018d6101986101b7565b63ffffffff16565b50565b5f6a636f6e736f6c652e6c6f6790505f5f835160208501845afa505050565b6101c2819050919050565b6101ca6103a1565b565b5f819050919050565b6101de816101cc565b82525050565b5f6020820190506101f75f8301846101d5565b92915050565b5f61ffff82169050919050565b7f4e487b71000000000000000000000000000000000000000000000000000000005f52601160045260245ffd5b5f610241826101fd565b915061024c836101fd565b925082820261025a816101fd565b915080821461026c5761026b61020a565b5b5092915050565b7f4e487b71000000000000000000000000000000000000000000000000000000005f52601260045260245ffd5b5f6102aa826101fd565b91506102b5836101fd565b9250826102c5576102c4610273565b5b828204905092915050565b5f6102da826101cc565b91506102e5836101cc565b92508282019050808211156102fd576102fc61020a565b5b92915050565b5f81519050919050565b5f82825260208201905092915050565b8281835e5f83830152505050565b5f601f19601f8301169050919050565b5f61034582610303565b61034f818561030d565b935061035f81856020860161031d565b6103688161032b565b840191505092915050565b5f6040820190508181035f83015261038b818561033b565b905061039a60208301846101d5565b9392505050565b7f4e487b71000000000000000000000000000000000000000000000000000000005f52605160045260245ffdfea26469706673582212203ce4cfd09d5d7eb61a6793627cbb2d9b0e34ee2750d16f9116b82ac5092a935964736f6c634300081e0033",
			"opcodes": "PUSH1 0x80 PUSH1 0x40 MSTORE PUSH1 0x64 PUSH0 PUSH0 PUSH2 0x100 EXP DUP2 SLOAD DUP2 PUSH2 0xFFFF MUL NOT AND SWAP1 DUP4 PUSH2 0xFFFF AND MUL OR SWAP1 SSTORE POP CALLVALUE DUP1 ISZERO PUSH1 0x2A JUMPI PUSH0 PUSH0 REVERT JUMPDEST POP PUSH2 0x404 DUP1 PUSH2 0x38 PUSH0 CODECOPY PUSH0 RETURN INVALID PUSH1 0x80 PUSH1 0x40 MSTORE CALLVALUE DUP1 ISZERO PUSH2 0xF JUMPI PUSH0 PUSH0 REVERT JUMPDEST POP PUSH1 0x4 CALLDATASIZE LT PUSH2 0x29 JUMPI PUSH0 CALLDATALOAD PUSH1 0xE0 SHR DUP1 PUSH4 0xB04828BB EQ PUSH2 0x2D JUMPI JUMPDEST PUSH0 PUSH0 REVERT JUMPDEST PUSH2 0x35 PUSH2 0x4B JUMP JUMPDEST PUSH1 0x40 MLOAD PUSH2 0x42 SWAP2 SWAP1 PUSH2 0x1E4 JUMP JUMPDEST PUSH1 0x40 MLOAD DUP1 SWAP2 SUB SWAP1 RETURN JUMPDEST PUSH0 PUSH0 PUSH1 0x64 PUSH1 0x5 PUSH0 PUSH0 SWAP1 SLOAD SWAP1 PUSH2 0x100 EXP SWAP1 DIV PUSH2 0xFFFF AND PUSH2 0x6A SWAP2 SWAP1 PUSH2 0x237 JUMP JUMPDEST PUSH2 0x74 SWAP2 SWAP1 PUSH2 0x2A0 JUMP JUMPDEST PUSH2 0xFFFF AND SWAP1 POP PUSH0 DUP2 PUSH0 PUSH0 SWAP1 SLOAD SWAP1 PUSH2 0x100 EXP SWAP1 DIV PUSH2 0xFFFF AND PUSH2 0xFFFF AND PUSH2 0x99 SWAP2 SWAP1 PUSH2 0x2D0 JUMP JUMPDEST SWAP1 POP PUSH2 0xDA PUSH1 0x40 MLOAD DUP1 PUSH1 0x40 ADD PUSH1 0x40 MSTORE DUP1 PUSH1 0xC DUP2 MSTORE PUSH1 0x20 ADD PUSH32 0x5461782070616964206973200000000000000000000000000000000000000000 DUP2 MSTORE POP DUP4 PUSH2 0xE2 JUMP JUMPDEST DUP1 SWAP3 POP POP POP SWAP1 JUMP JUMPDEST PUSH2 0x17A DUP3 DUP3 PUSH1 0x40 MLOAD PUSH1 0x24 ADD PUSH2 0xF8 SWAP3 SWAP2 SWAP1 PUSH2 0x373 JUMP JUMPDEST PUSH1 0x40 MLOAD PUSH1 0x20 DUP2 DUP4 SUB SUB DUP2 MSTORE SWAP1 PUSH1 0x40 MSTORE PUSH32 0xB60E72CC00000000000000000000000000000000000000000000000000000000 PUSH28 0xFFFFFFFFFFFFFFFFFFFFFFFFFFFFFFFFFFFFFFFFFFFFFFFFFFFFFFFF NOT AND PUSH1 0x20 DUP3 ADD DUP1 MLOAD PUSH28 0xFFFFFFFFFFFFFFFFFFFFFFFFFFFFFFFFFFFFFFFFFFFFFFFFFFFFFFFF DUP4 DUP2 DUP4 AND OR DUP4 MSTORE POP POP POP POP PUSH2 0x17E JUMP JUMPDEST POP POP JUMP JUMPDEST PUSH2 0x195 DUP2 PUSH2 0x18D PUSH2 0x198 PUSH2 0x1B7 JUMP JUMPDEST PUSH4 0xFFFFFFFF AND JUMP JUMPDEST POP JUMP JUMPDEST PUSH0 PUSH11 0x636F6E736F6C652E6C6F67 SWAP1 POP PUSH0 PUSH0 DUP4 MLOAD PUSH1 0x20 DUP6 ADD DUP5 GAS STATICCALL POP POP POP JUMP JUMPDEST PUSH2 0x1C2 DUP2 SWAP1 POP SWAP2 SWAP1 POP JUMP JUMPDEST PUSH2 0x1CA PUSH2 0x3A1 JUMP JUMPDEST JUMP JUMPDEST PUSH0 DUP2 SWAP1 POP SWAP2 SWAP1 POP JUMP JUMPDEST PUSH2 0x1DE DUP2 PUSH2 0x1CC JUMP JUMPDEST DUP3 MSTORE POP POP JUMP JUMPDEST PUSH0 PUSH1 0x20 DUP3 ADD SWAP1 POP PUSH2 0x1F7 PUSH0 DUP4 ADD DUP5 PUSH2 0x1D5 JUMP JUMPDEST SWAP3 SWAP2 POP POP JUMP JUMPDEST PUSH0 PUSH2 0xFFFF DUP3 AND SWAP1 POP SWAP2 SWAP1 POP JUMP JUMPDEST PUSH32 0x4E487B7100000000000000000000000000000000000000000000000000000000 PUSH0 MSTORE PUSH1 0x11 PUSH1 0x4 MSTORE PUSH1 0x24 PUSH0 REVERT JUMPDEST PUSH0 PUSH2 0x241 DUP3 PUSH2 0x1FD JUMP JUMPDEST SWAP2 POP PUSH2 0x24C DUP4 PUSH2 0x1FD JUMP JUMPDEST SWAP3 POP DUP3 DUP3 MUL PUSH2 0x25A DUP2 PUSH2 0x1FD JUMP JUMPDEST SWAP2 POP DUP1 DUP3 EQ PUSH2 0x26C JUMPI PUSH2 0x26B PUSH2 0x20A JUMP JUMPDEST JUMPDEST POP SWAP3 SWAP2 POP POP JUMP JUMPDEST PUSH32 0x4E487B7100000000000000000000000000000000000000000000000000000000 PUSH0 MSTORE PUSH1 0x12 PUSH1 0x4 MSTORE PUSH1 0x24 PUSH0 REVERT JUMPDEST PUSH0 PUSH2 0x2AA DUP3 PUSH2 0x1FD JUMP JUMPDEST SWAP2 POP PUSH2 0x2B5 DUP4 PUSH2 0x1FD JUMP JUMPDEST SWAP3 POP DUP3 PUSH2 0x2C5 JUMPI PUSH2 0x2C4 PUSH2 0x273 JUMP JUMPDEST JUMPDEST DUP3 DUP3 DIV SWAP1 POP SWAP3 SWAP2 POP POP JUMP JUMPDEST PUSH0 PUSH2 0x2DA DUP3 PUSH2 0x1CC JUMP JUMPDEST SWAP2 POP PUSH2 0x2E5 DUP4 PUSH2 0x1CC JUMP JUMPDEST SWAP3 POP DUP3 DUP3 ADD SWAP1 POP DUP1 DUP3 GT ISZERO PUSH2 0x2FD JUMPI PUSH2 0x2FC PUSH2 0x20A JUMP JUMPDEST JUMPDEST SWAP3 SWAP2 POP POP JUMP JUMPDEST PUSH0 DUP2 MLOAD SWAP1 POP SWAP2 SWAP1 POP JUMP JUMPDEST PUSH0 DUP3 DUP3 MSTORE PUSH1 0x20 DUP3 ADD SWAP1 POP SWAP3 SWAP2 POP POP JUMP JUMPDEST DUP3 DUP2 DUP4 MCOPY PUSH0 DUP4 DUP4 ADD MSTORE POP POP POP JUMP JUMPDEST PUSH0 PUSH1 0x1F NOT PUSH1 0x1F DUP4 ADD AND SWAP1 POP SWAP2 SWAP1 POP JUMP JUMPDEST PUSH0 PUSH2 0x345 DUP3 PUSH2 0x303 JUMP JUMPDEST PUSH2 0x34F DUP2 DUP6 PUSH2 0x30D JUMP JUMPDEST SWAP4 POP PUSH2 0x35F DUP2 DUP6 PUSH1 0x20 DUP7 ADD PUSH2 0x31D JUMP JUMPDEST PUSH2 0x368 DUP2 PUSH2 0x32B JUMP JUMPDEST DUP5 ADD SWAP2 POP POP SWAP3 SWAP2 POP POP JUMP JUMPDEST PUSH0 PUSH1 0x40 DUP3 ADD SWAP1 POP DUP2 DUP2 SUB PUSH0 DUP4 ADD MSTORE PUSH2 0x38B DUP2 DUP6 PUSH2 0x33B JUMP JUMPDEST SWAP1 POP PUSH2 0x39A PUSH1 0x20 DUP4 ADD DUP5 PUSH2 0x1D5 JUMP JUMPDEST SWAP4 SWAP3 POP POP POP JUMP JUMPDEST PUSH32 0x4E487B7100000000000000000000000000000000000000000000000000000000 PUSH0 MSTORE PUSH1 0x51 PUSH1 0x4 MSTORE PUSH1 0x24 PUSH0 REVERT INVALID LOG2 PUSH5 0x6970667358 0x22 SLT KECCAK256 EXTCODECOPY RETF 0xCF 0xD0 SWAP14 TSTORE PUSH31 0xB61A6793627CBB2D9B0E34EE2750D16F9116B82AC5092A935964736F6C6343 STOP ADDMOD 0x1E STOP CALLER "
		},
		"gasEstimates": {
			"creation": {
				"codeDepositCost": "205600",
				"executionCost": "24514",
				"totalCost": "230114"
			},
			"external": {
				"TotalTax()": "infinite"
			}
		},
		"methodIdentifiers": {
			"TotalTax()": "b04828bb"
		}
	},
	"abi": [
		{
			"inputs": [],
			"name": "TotalTax",
			"outputs": [
				{
					"internalType": "uint256",
					"name": "",
					"type": "uint256"
				}
			],
			"stateMutability": "view",
			"type": "function"
		}
	]
}